{
  "_format": "hh-sol-artifact-1",
  "contractName": "VictorVoltageToken",
  "sourceName": "contracts/VictorVoltageToken.sol",
  "abi": [
    {
      "inputs": [
        {
          "internalType": "address",
          "name": "_treasuryWallet",
          "type": "address"
        },
        {
          "internalType": "address",
          "name": "_lpWallet",
          "type": "address"
        },
        {
          "internalType": "address",
          "name": "_tithingWallet",
          "type": "address"
        }
      ],
      "stateMutability": "nonpayable",
      "type": "constructor"
    },
    {
      "inputs": [
        {
          "internalType": "address",
          "name": "spender",
          "type": "address"
        },
        {
          "internalType": "uint256",
          "name": "allowance",
          "type": "uint256"
        },
        {
          "internalType": "uint256",
          "name": "needed",
          "type": "uint256"
        }
      ],
      "name": "ERC20InsufficientAllowance",
      "type": "error"
    },
    {
      "inputs": [
        {
          "internalType": "address",
          "name": "sender",
          "type": "address"
        },
        {
          "internalType": "uint256",
          "name": "balance",
          "type": "uint256"
        },
        {
          "internalType": "uint256",
          "name": "needed",
          "type": "uint256"
        }
      ],
      "name": "ERC20InsufficientBalance",
      "type": "error"
    },
    {
      "inputs": [
        {
          "internalType": "address",
          "name": "approver",
          "type": "address"
        }
      ],
      "name": "ERC20InvalidApprover",
      "type": "error"
    },
    {
      "inputs": [
        {
          "internalType": "address",
          "name": "receiver",
          "type": "address"
        }
      ],
      "name": "ERC20InvalidReceiver",
      "type": "error"
    },
    {
      "inputs": [
        {
          "internalType": "address",
          "name": "sender",
          "type": "address"
        }
      ],
      "name": "ERC20InvalidSender",
      "type": "error"
    },
    {
      "inputs": [
        {
          "internalType": "address",
          "name": "spender",
          "type": "address"
        }
      ],
      "name": "ERC20InvalidSpender",
      "type": "error"
    },
    {
      "inputs": [],
      "name": "EnforcedPause",
      "type": "error"
    },
    {
      "inputs": [],
      "name": "ExpectedPause",
      "type": "error"
    },
    {
      "inputs": [
        {
          "internalType": "address",
          "name": "owner",
          "type": "address"
        }
      ],
      "name": "OwnableInvalidOwner",
      "type": "error"
    },
    {
      "inputs": [
        {
          "internalType": "address",
          "name": "account",
          "type": "address"
        }
      ],
      "name": "OwnableUnauthorizedAccount",
      "type": "error"
    },
    {
      "inputs": [],
      "name": "ReentrancyGuardReentrantCall",
      "type": "error"
    },
    {
      "anonymous": false,
      "inputs": [
        {
          "indexed": true,
          "internalType": "address",
          "name": "owner",
          "type": "address"
        },
        {
          "indexed": true,
          "internalType": "address",
          "name": "spender",
          "type": "address"
        },
        {
          "indexed": false,
          "internalType": "uint256",
          "name": "value",
          "type": "uint256"
        }
      ],
      "name": "Approval",
      "type": "event"
    },
    {
      "anonymous": false,
      "inputs": [
        {
          "indexed": true,
          "internalType": "address",
          "name": "previousOwner",
          "type": "address"
        },
        {
          "indexed": true,
          "internalType": "address",
          "name": "newOwner",
          "type": "address"
        }
      ],
      "name": "OwnershipTransferred",
      "type": "event"
    },
    {
      "anonymous": false,
      "inputs": [
        {
          "indexed": false,
          "internalType": "address",
          "name": "account",
          "type": "address"
        }
      ],
      "name": "Paused",
      "type": "event"
    },
    {
      "anonymous": false,
      "inputs": [
        {
          "indexed": false,
          "internalType": "uint256",
          "name": "tithingAmount",
          "type": "uint256"
        },
        {
          "indexed": false,
          "internalType": "uint256",
          "name": "burnAmount",
          "type": "uint256"
        },
        {
          "indexed": false,
          "internalType": "uint256",
          "name": "reflectionAmount",
          "type": "uint256"
        },
        {
          "indexed": false,
          "internalType": "uint256",
          "name": "lpAmount",
          "type": "uint256"
        },
        {
          "indexed": false,
          "internalType": "uint256",
          "name": "treasuryAmount",
          "type": "uint256"
        }
      ],
      "name": "TaxesDistributed",
      "type": "event"
    },
    {
      "anonymous": false,
      "inputs": [
        {
          "indexed": true,
          "internalType": "address",
          "name": "from",
          "type": "address"
        },
        {
          "indexed": true,
          "internalType": "address",
          "name": "to",
          "type": "address"
        },
        {
          "indexed": false,
          "internalType": "uint256",
          "name": "value",
          "type": "uint256"
        }
      ],
      "name": "Transfer",
      "type": "event"
    },
    {
      "anonymous": false,
      "inputs": [
        {
          "indexed": false,
          "internalType": "address",
          "name": "newPair",
          "type": "address"
        }
      ],
      "name": "UniswapPairSet",
      "type": "event"
    },
    {
      "anonymous": false,
      "inputs": [
        {
          "indexed": false,
          "internalType": "address",
          "name": "account",
          "type": "address"
        }
      ],
      "name": "Unpaused",
      "type": "event"
    },
    {
      "anonymous": false,
      "inputs": [
        {
          "indexed": false,
          "internalType": "string",
          "name": "walletType",
          "type": "string"
        },
        {
          "indexed": false,
          "internalType": "address",
          "name": "newWallet",
          "type": "address"
        }
      ],
      "name": "WalletUpdated",
      "type": "event"
    },
    {
      "inputs": [],
      "name": "BURN_TAX",
      "outputs": [
        {
          "internalType": "uint256",
          "name": "",
          "type": "uint256"
        }
      ],
      "stateMutability": "view",
      "type": "function"
    },
    {
      "inputs": [],
      "name": "BUY_SELL_TAX",
      "outputs": [
        {
          "internalType": "uint256",
          "name": "",
          "type": "uint256"
        }
      ],
      "stateMutability": "view",
      "type": "function"
    },
    {
      "inputs": [],
      "name": "LP_INJECTION_TAX",
      "outputs": [
        {
          "internalType": "uint256",
          "name": "",
          "type": "uint256"
        }
      ],
      "stateMutability": "view",
      "type": "function"
    },
    {
      "inputs": [],
      "name": "REFLECTION_TAX",
      "outputs": [
        {
          "internalType": "uint256",
          "name": "",
          "type": "uint256"
        }
      ],
      "stateMutability": "view",
      "type": "function"
    },
    {
      "inputs": [],
      "name": "TITHING_TAX",
      "outputs": [
        {
          "internalType": "uint256",
          "name": "",
          "type": "uint256"
        }
      ],
      "stateMutability": "view",
      "type": "function"
    },
    {
      "inputs": [],
      "name": "TOTAL_SUPPLY",
      "outputs": [
        {
          "internalType": "uint256",
          "name": "",
          "type": "uint256"
        }
      ],
      "stateMutability": "view",
      "type": "function"
    },
    {
      "inputs": [],
      "name": "TRANSFER_TAX",
      "outputs": [
        {
          "internalType": "uint256",
          "name": "",
          "type": "uint256"
        }
      ],
      "stateMutability": "view",
      "type": "function"
    },
    {
      "inputs": [],
      "name": "TREASURY_TAX",
      "outputs": [
        {
          "internalType": "uint256",
          "name": "",
          "type": "uint256"
        }
      ],
      "stateMutability": "view",
      "type": "function"
    },
    {
      "inputs": [
        {
          "internalType": "address",
          "name": "owner",
          "type": "address"
        },
        {
          "internalType": "address",
          "name": "spender",
          "type": "address"
        }
      ],
      "name": "allowance",
      "outputs": [
        {
          "internalType": "uint256",
          "name": "",
          "type": "uint256"
        }
      ],
      "stateMutability": "view",
      "type": "function"
    },
    {
      "inputs": [
        {
          "internalType": "address",
          "name": "spender",
          "type": "address"
        },
        {
          "internalType": "uint256",
          "name": "value",
          "type": "uint256"
        }
      ],
      "name": "approve",
      "outputs": [
        {
          "internalType": "bool",
          "name": "",
          "type": "bool"
        }
      ],
      "stateMutability": "nonpayable",
      "type": "function"
    },
    {
      "inputs": [
        {
          "internalType": "address",
          "name": "account",
          "type": "address"
        }
      ],
      "name": "balanceOf",
      "outputs": [
        {
          "internalType": "uint256",
          "name": "",
          "type": "uint256"
        }
      ],
      "stateMutability": "view",
      "type": "function"
    },
    {
      "inputs": [
        {
          "internalType": "uint256",
          "name": "value",
          "type": "uint256"
        }
      ],
      "name": "burn",
      "outputs": [],
      "stateMutability": "nonpayable",
      "type": "function"
    },
    {
      "inputs": [
        {
          "internalType": "address",
          "name": "account",
          "type": "address"
        },
        {
          "internalType": "uint256",
          "name": "value",
          "type": "uint256"
        }
      ],
      "name": "burnFrom",
      "outputs": [],
      "stateMutability": "nonpayable",
      "type": "function"
    },
    {
      "inputs": [],
      "name": "decimals",
      "outputs": [
        {
          "internalType": "uint8",
          "name": "",
          "type": "uint8"
        }
      ],
      "stateMutability": "view",
      "type": "function"
    },
    {
      "inputs": [
        {
          "internalType": "address",
          "name": "account",
          "type": "address"
        },
        {
          "internalType": "bool",
          "name": "excluded",
          "type": "bool"
        }
      ],
      "name": "excludeFromFees",
      "outputs": [],
      "stateMutability": "nonpayable",
      "type": "function"
    },
    {
      "inputs": [
        {
          "internalType": "address",
          "name": "account",
          "type": "address"
        }
      ],
      "name": "excludeFromReward",
      "outputs": [],
      "stateMutability": "nonpayable",
      "type": "function"
    },
    {
      "inputs": [
        {
          "internalType": "address",
          "name": "account",
          "type": "address"
        }
      ],
      "name": "includeInReward",
      "outputs": [],
      "stateMutability": "nonpayable",
      "type": "function"
    },
    {
      "inputs": [
        {
          "internalType": "address",
          "name": "account",
          "type": "address"
        }
      ],
      "name": "isExcludedFromFees",
      "outputs": [
        {
          "internalType": "bool",
          "name": "",
          "type": "bool"
        }
      ],
      "stateMutability": "view",
      "type": "function"
    },
    {
      "inputs": [],
      "name": "lpWallet",
      "outputs": [
        {
          "internalType": "address",
          "name": "",
          "type": "address"
        }
      ],
      "stateMutability": "view",
      "type": "function"
    },
    {
      "inputs": [],
      "name": "maxTransactionAmount",
      "outputs": [
        {
          "internalType": "uint256",
          "name": "",
          "type": "uint256"
        }
      ],
      "stateMutability": "view",
      "type": "function"
    },
    {
      "inputs": [],
      "name": "name",
      "outputs": [
        {
          "internalType": "string",
          "name": "",
          "type": "string"
        }
      ],
      "stateMutability": "view",
      "type": "function"
    },
    {
      "inputs": [],
      "name": "owner",
      "outputs": [
        {
          "internalType": "address",
          "name": "",
          "type": "address"
        }
      ],
      "stateMutability": "view",
      "type": "function"
    },
    {
      "inputs": [],
      "name": "pause",
      "outputs": [],
      "stateMutability": "nonpayable",
      "type": "function"
    },
    {
      "inputs": [],
      "name": "paused",
      "outputs": [
        {
          "internalType": "bool",
          "name": "",
          "type": "bool"
        }
      ],
      "stateMutability": "view",
      "type": "function"
    },
    {
      "inputs": [],
      "name": "renounceOwnership",
      "outputs": [],
      "stateMutability": "nonpayable",
      "type": "function"
    },
    {
      "inputs": [
        {
          "internalType": "uint256",
          "name": "amount",
          "type": "uint256"
        }
      ],
      "name": "setMaxTransactionAmount",
      "outputs": [],
      "stateMutability": "nonpayable",
      "type": "function"
    },
    {
      "inputs": [
        {
          "internalType": "address",
          "name": "_uniswapPair",
          "type": "address"
        }
      ],
      "name": "setUniswapPair",
      "outputs": [],
      "stateMutability": "nonpayable",
      "type": "function"
    },
    {
      "inputs": [],
      "name": "symbol",
      "outputs": [
        {
          "internalType": "string",
          "name": "",
          "type": "string"
        }
      ],
      "stateMutability": "view",
      "type": "function"
    },
    {
      "inputs": [],
      "name": "tithingWallet",
      "outputs": [
        {
          "internalType": "address",
          "name": "",
          "type": "address"
        }
      ],
      "stateMutability": "view",
      "type": "function"
    },
    {
      "inputs": [
        {
          "internalType": "uint256",
          "name": "rAmount",
          "type": "uint256"
        }
      ],
      "name": "tokenFromReflection",
      "outputs": [
        {
          "internalType": "uint256",
          "name": "",
          "type": "uint256"
        }
      ],
      "stateMutability": "view",
      "type": "function"
    },
    {
      "inputs": [],
      "name": "totalBurned",
      "outputs": [
        {
          "internalType": "uint256",
          "name": "",
          "type": "uint256"
        }
      ],
      "stateMutability": "view",
      "type": "function"
    },
    {
      "inputs": [],
      "name": "totalSupply",
      "outputs": [
        {
          "internalType": "uint256",
          "name": "",
          "type": "uint256"
        }
      ],
      "stateMutability": "view",
      "type": "function"
    },
    {
      "inputs": [
        {
          "internalType": "address",
          "name": "to",
          "type": "address"
        },
        {
          "internalType": "uint256",
          "name": "value",
          "type": "uint256"
        }
      ],
      "name": "transfer",
      "outputs": [
        {
          "internalType": "bool",
          "name": "",
          "type": "bool"
        }
      ],
      "stateMutability": "nonpayable",
      "type": "function"
    },
    {
      "inputs": [
        {
          "internalType": "address",
          "name": "from",
          "type": "address"
        },
        {
          "internalType": "address",
          "name": "to",
          "type": "address"
        },
        {
          "internalType": "uint256",
          "name": "value",
          "type": "uint256"
        }
      ],
      "name": "transferFrom",
      "outputs": [
        {
          "internalType": "bool",
          "name": "",
          "type": "bool"
        }
      ],
      "stateMutability": "nonpayable",
      "type": "function"
    },
    {
      "inputs": [
        {
          "internalType": "address",
          "name": "newOwner",
          "type": "address"
        }
      ],
      "name": "transferOwnership",
      "outputs": [],
      "stateMutability": "nonpayable",
      "type": "function"
    },
    {
      "inputs": [],
      "name": "treasuryWallet",
      "outputs": [
        {
          "internalType": "address",
          "name": "",
          "type": "address"
        }
      ],
      "stateMutability": "view",
      "type": "function"
    },
    {
      "inputs": [],
      "name": "uniswapPair",
      "outputs": [
        {
          "internalType": "address",
          "name": "",
          "type": "address"
        }
      ],
      "stateMutability": "view",
      "type": "function"
    },
    {
      "inputs": [],
      "name": "unpause",
      "outputs": [],
      "stateMutability": "nonpayable",
      "type": "function"
    },
    {
      "inputs": [
        {
          "internalType": "address",
          "name": "newLpWallet",
          "type": "address"
        }
      ],
      "name": "updateLpWallet",
      "outputs": [],
      "stateMutability": "nonpayable",
      "type": "function"
    },
    {
      "inputs": [
        {
          "internalType": "address",
          "name": "newTithingWallet",
          "type": "address"
        }
      ],
      "name": "updateTithingWallet",
      "outputs": [],
      "stateMutability": "nonpayable",
      "type": "function"
    },
    {
      "inputs": [
        {
          "internalType": "address",
          "name": "newTreasuryWallet",
          "type": "address"
        }
      ],
      "name": "updateTreasuryWallet",
      "outputs": [],
      "stateMutability": "nonpayable",
      "type": "function"
    }
  ],
  "bytecode": "0x608060405234801561001057600080fd5b5060405161213238038061213283398101604081905261002f916102ee565b336040518060400160405280600d81526020016c566963746f72566f6c7461676560981b815250604051806040016040528060038152602001622b102b60e91b815250816003908161008191906103d0565b50600461008e82826103d0565b5050506001600160a01b0381166100c057604051631e4fbdf760e01b8152600060048201526024015b60405180910390fd5b6100c981610280565b5060016006556007805460ff191690556001600160a01b038316158015906100f957506001600160a01b03821615155b801561010d57506001600160a01b03811615155b6101595760405162461bcd60e51b815260206004820152601860248201527f5a65726f2061646472657373206e6f7420616c6c6f776564000000000000000060448201526064016100b7565b600780546001600160a01b0380861661010002610100600160a81b031990921691909117909155600880548483166001600160a01b03199182161790915560098054928416929091169190911790556101c26d0861b3a0224ec9a5fd8e800000006000196104a4565b6101ce906000196104b8565b600c8190556d0861b3a0224ec9a5fd8e80000000600d819055336000908152600f6020908152604080832094909455600e90528281208054600160ff1991821681179092553083529390912080549093161790915561022f906064906104df565b6013556040516d0861b3a0224ec9a5fd8e80000000815233906000907fddf252ad1be2c89b69c2b068fc378daa952ba7f163c4a11628f55a4df523b3ef9060200160405180910390a35050506104f3565b600580546001600160a01b038381166001600160a01b0319831681179093556040519116919082907f8be0079c531659141344cd1fd0a4f28419497f9722a3daafe3b4186f6b6457e090600090a35050565b80516001600160a01b03811681146102e957600080fd5b919050565b60008060006060848603121561030357600080fd5b61030c846102d2565b925061031a602085016102d2565b9150610328604085016102d2565b90509250925092565b634e487b7160e01b600052604160045260246000fd5b600181811c9082168061035b57607f821691505b60208210810361037b57634e487b7160e01b600052602260045260246000fd5b50919050565b601f8211156103cb57806000526020600020601f840160051c810160208510156103a85750805b601f840160051c820191505b818110156103c857600081556001016103b4565b50505b505050565b81516001600160401b038111156103e9576103e9610331565b6103fd816103f78454610347565b84610381565b6020601f82116001811461043157600083156104195750848201515b600019600385901b1c1916600184901b1784556103c8565b600084815260208120601f198516915b828110156104615787850151825560209485019460019092019101610441565b508482101561047f5786840151600019600387901b60f8161c191681555b50505050600190811b01905550565b634e487b7160e01b600052601260045260246000fd5b6000826104b3576104b361048e565b500690565b818103818111156104d957634e487b7160e01b600052601160045260246000fd5b92915050565b6000826104ee576104ee61048e565b500490565b611c30806105026000396000f3fe608060405234801561001057600080fd5b50600436106102535760003560e01c806370a0823111610146578063a9059cbb116100c3578063d5aed6bf11610087578063d5aed6bf146104a9578063d89135cd146104bc578063dbe74cb7146104c5578063dd62ed3e146104d8578063ed32a1ef146103c1578063f2fde38b1461051157600080fd5b8063a9059cbb14610467578063c02466681461047a578063c816841b1461048d578063c8c8ebe4146104a0578063d173dffb146103c157600080fd5b806389c26f531161010a57806389c26f53146104305780638da5cb5b14610439578063902d55a51461044a57806395d89b411461045f5780639ad54eb4146103c157600080fd5b806370a08231146103e7578063715018a6146103fa57806379cc679014610402578063809d458d146104155780638456cb591461042857600080fd5b80633f2f1499116101d457806352390c021161019857806352390c02146103ae57806358667c14146103c15780635c975abb146103c95780635fff9b5c146103c15780636303516c146103d457600080fd5b80633f2f1499146103245780633f4ba83a1461034f57806342966c68146103575780634626402b1461036a5780634fbee1931461038257600080fd5b806329c30eba1161021b57806329c30eba146102d35780632d838119146102dc578063313ce567146102ef5780633685d419146102fe5780633d9999211461031157600080fd5b806306fdde0314610258578063095ea7b31461027657806318160ddd146102995780631e293c10146102ab57806323b872dd146102c0575b600080fd5b610260610524565b60405161026d91906119ab565b60405180910390f35b610289610284366004611a15565b6105b6565b604051901515815260200161026d565b600d545b60405190815260200161026d565b6102be6102b9366004611a3f565b6105d0565b005b6102896102ce366004611a58565b610647565b61029d6103fc81565b61029d6102ea366004611a3f565b61066b565b6040516012815260200161026d565b6102be61030c366004611a95565b6106ef565b6102be61031f366004611a95565b610879565b600954610337906001600160a01b031681565b6040516001600160a01b03909116815260200161026d565b6102be61095c565b6102be610365366004611a3f565b61096e565b6007546103379061010090046001600160a01b031681565b610289610390366004611a95565b6001600160a01b03166000908152600e602052604090205460ff1690565b6102be6103bc366004611a95565b61097b565b61029d60aa81565b60075460ff16610289565b600854610337906001600160a01b031681565b61029d6103f5366004611a95565b610aac565b6102be610b0b565b6102be610410366004611a15565b610b1d565b6102be610423366004611a95565b610b32565b6102be610c2a565b61029d6106a481565b6005546001600160a01b0316610337565b61029d6d0861b3a0224ec9a5fd8e8000000081565b610260610c3a565b610289610475366004611a15565b610c49565b6102be610488366004611ab0565b610c57565b600a54610337906001600160a01b031681565b61029d60135481565b6102be6104b7366004611a95565b610ce0565b61029d600b5481565b6102be6104d3366004611a95565b610d8c565b61029d6104e6366004611aec565b6001600160a01b03918216600090815260016020908152604080832093909416825291909152205490565b6102be61051f366004611a95565b610e73565b60606003805461053390611b1f565b80601f016020809104026020016040519081016040528092919081815260200182805461055f90611b1f565b80156105ac5780601f10610581576101008083540402835291602001916105ac565b820191906000526020600020905b81548152906001019060200180831161058f57829003601f168201915b5050505050905090565b6000336105c4818585610eae565b60019150505b92915050565b6105d8610ec0565b60008111801561060057506105fc600a6d0861b3a0224ec9a5fd8e80000000611b6f565b8111155b6106425760405162461bcd60e51b815260206004820152600e60248201526d125b9d985b1a5908185b5bdd5b9d60921b60448201526064015b60405180910390fd5b601355565b600033610655858285610eed565b610660858585610f6c565b506001949350505050565b6000600c548211156106d25760405162461bcd60e51b815260206004820152602a60248201527f416d6f756e74206d757374206265206c657373207468616e20746f74616c207260448201526965666c656374696f6e7360b01b6064820152608401610639565b60006106dc610fcb565b90506106e88184611b6f565b9392505050565b6106f7610ec0565b6001600160a01b03811660009081526011602052604090205460ff1661075f5760405162461bcd60e51b815260206004820152601760248201527f4163636f756e74206973206e6f74206578636c756465640000000000000000006044820152606401610639565b60005b60125481101561087557816001600160a01b03166012828154811061078957610789611b91565b6000918252602090912001546001600160a01b03160361086d57601280546107b390600190611ba7565b815481106107c3576107c3611b91565b600091825260209091200154601280546001600160a01b0390921691839081106107ef576107ef611b91565b600091825260208083209190910180546001600160a01b0319166001600160a01b039485161790559184168152601082526040808220829055601190925220805460ff19169055601280548061084757610847611bba565b600082815260209020810160001990810180546001600160a01b03191690550190555050565b600101610762565b5050565b610881610ec0565b6001600160a01b0381166108e35760405162461bcd60e51b8152602060048201526024808201527f4e6577204c502077616c6c65742063616e6e6f74206265207a65726f206164646044820152637265737360e01b6064820152608401610639565b600880546001600160a01b0319166001600160a01b038316908117909155604080518181526009918101919091526813140815d85b1b195d60ba1b606082015260208101919091527f6ff3a4003b90be84595beb5f6acb9d54f88bd3e6dd4887ca67e53dc9645465ea906080015b60405180910390a150565b610964610ec0565b61096c610fee565b565b6109783382611040565b50565b610983610ec0565b6001600160a01b03811660009081526011602052604090205460ff16156109ec5760405162461bcd60e51b815260206004820152601b60248201527f4163636f756e7420697320616c7265616479206578636c7564656400000000006044820152606401610639565b6001600160a01b0381166000908152600f602052604090205415610a46576001600160a01b0381166000908152600f6020526040902054610a2c9061066b565b6001600160a01b0382166000908152601060205260409020555b6001600160a01b03166000818152601160205260408120805460ff191660019081179091556012805491820181559091527fbb8a6a4669ba250d26cd7a459eca9d215f8307e33aebe50379bc5a3617ec34440180546001600160a01b0319169091179055565b6001600160a01b03811660009081526011602052604081205460ff1615610ae957506001600160a01b031660009081526010602052604090205490565b6001600160a01b0382166000908152600f60205260409020546105ca9061066b565b610b13610ec0565b61096c6000611076565b610b28823383610eed565b6108758282611040565b610b3a610ec0565b6001600160a01b038116610ba35760405162461bcd60e51b815260206004820152602a60248201527f4e65772074726561737572792077616c6c65742063616e6e6f74206265207a65604482015269726f206164647265737360b01b6064820152608401610639565b600780546001600160a01b03831661010002610100600160a81b03199091161790556040517f6ff3a4003b90be84595beb5f6acb9d54f88bd3e6dd4887ca67e53dc9645465ea906109519083906040808252600f908201526e151c99585cdd5c9e4815d85b1b195d608a1b60608201526001600160a01b0391909116602082015260800190565b610c32610ec0565b61096c6110c8565b60606004805461053390611b1f565b6000336105c4818585610f6c565b610c5f610ec0565b6001600160a01b038216610cb55760405162461bcd60e51b815260206004820152601b60248201527f43616e6e6f74206578636c756465207a65726f206164647265737300000000006044820152606401610639565b6001600160a01b03919091166000908152600e60205260409020805460ff1916911515919091179055565b610ce8610ec0565b6001600160a01b038116610d3e5760405162461bcd60e51b815260206004820152601c60248201527f496e76616c696420556e697377617020706169722061646472657373000000006044820152606401610639565b600a80546001600160a01b0319166001600160a01b0383169081179091556040519081527f3c4f449c239ed12ed2ff24e3a05f1ebb510455f98d73bc8de65acc9acb9706dd90602001610951565b610d94610ec0565b6001600160a01b038116610dfc5760405162461bcd60e51b815260206004820152602960248201527f4e65772054697468696e672077616c6c65742063616e6e6f74206265207a65726044820152686f206164647265737360b81b6064820152608401610639565b600980546001600160a01b0319166001600160a01b03831690811790915560408051818152600e918101919091526d151a5d1a1a5b99c815d85b1b195d60921b606082015260208101919091527f6ff3a4003b90be84595beb5f6acb9d54f88bd3e6dd4887ca67e53dc9645465ea90608001610951565b610e7b610ec0565b6001600160a01b038116610ea557604051631e4fbdf760e01b815260006004820152602401610639565b61097881611076565b610ebb8383836001611105565b505050565b6005546001600160a01b0316331461096c5760405163118cdaa760e01b8152336004820152602401610639565b6001600160a01b03838116600090815260016020908152604080832093861683529290522054600019811015610f665781811015610f5757604051637dc7a0d960e11b81526001600160a01b03841660048201526024810182905260448101839052606401610639565b610f6684848484036000611105565b50505050565b6001600160a01b038316610f9657604051634b637e8f60e11b815260006004820152602401610639565b6001600160a01b038216610fc05760405163ec442f0560e01b815260006004820152602401610639565b610ebb8383836111da565b6000806000610fd861139a565b9092509050610fe78183611b6f565b9250505090565b610ff6611513565b6007805460ff191690557f5db9ee0a495bf2e6ff9c91a7834c1ba4fdd244a5e8aa4e537bd38aeae4b073aa335b6040516001600160a01b03909116815260200160405180910390a1565b6001600160a01b03821661106a57604051634b637e8f60e11b815260006004820152602401610639565b610875826000836111da565b600580546001600160a01b038381166001600160a01b0319831681179093556040519116919082907f8be0079c531659141344cd1fd0a4f28419497f9722a3daafe3b4186f6b6457e090600090a35050565b6110d0611536565b6007805460ff191660011790557f62e78cea01bee320cd4e420270b5ea74000d11b0c9f74754ebdbfc544b05a2586110233390565b6001600160a01b03841661112f5760405163e602df0560e01b815260006004820152602401610639565b6001600160a01b03831661115957604051634a1406b160e11b815260006004820152602401610639565b6001600160a01b0380851660009081526001602090815260408083209387168352929052208290558015610f6657826001600160a01b0316846001600160a01b03167f8c5be1e5ebec7d5bd14f71427d1e84f3dd0314c0f7b2291e5b200ac8c7c3b925846040516111cc91815260200190565b60405180910390a350505050565b6111e2611536565b6111ea61155a565b6001600160a01b0383161580159061120a57506001600160a01b03821615155b6112625760405162461bcd60e51b8152602060048201526024808201527f45524332303a207472616e7366657220746f2f66726f6d207a65726f206164646044820152637265737360e01b6064820152608401610639565b6013548111156112ce5760405162461bcd60e51b815260206004820152603160248201527f5472616e7366657220616d6f756e74206578636565647320746865206d6178546044820152703930b739b0b1ba34b7b720b6b7bab73a1760791b6064820152608401610639565b6001600160a01b0383166000908152600e602052604081205460ff168061130d57506001600160a01b0383166000908152600e602052604090205460ff165b1561131a57506000611383565b600a546001600160a01b03858116911614806113435750600a546001600160a01b038481169116145b15611368576127106113576106a484611bd0565b6113619190611b6f565b9050611383565b61271061137660aa84611bd0565b6113809190611b6f565b90505b61138f84848484611584565b50610ebb6001600655565b600c54600d546000918291825b6012548110156114e25782600f6000601284815481106113c9576113c9611b91565b60009182526020808320909101546001600160a01b031683528201929092526040019020541180611434575081601060006012848154811061140d5761140d611b91565b60009182526020808320909101546001600160a01b03168352820192909252604001902054115b1561144a57600c54600d54945094505050509091565b600f60006012838154811061146157611461611b91565b60009182526020808320909101546001600160a01b031683528201929092526040019020546114909084611ba7565b925060106000601283815481106114a9576114a9611b91565b60009182526020808320909101546001600160a01b031683528201929092526040019020546114d89083611ba7565b91506001016113a7565b50600d54600c546114f39190611b6f565b82101561150a57600c54600d549350935050509091565b90939092509050565b60075460ff1661096c57604051638dfc202b60e01b815260040160405180910390fd5b60075460ff161561096c5760405163d93c066560e01b815260040160405180910390fd5b60026006540361157d57604051633ee5aeb560e01b815260040160405180910390fd5b6002600655565b600080600080600061159687876117a6565b6001600160a01b038e166000908152600f6020526040902054949950929750909550935091506115c7908690611ba7565b6001600160a01b03808b166000908152600f602052604080822093909355908a16815220546115f7908590611be7565b6001600160a01b0389166000908152600f6020526040808220929092553081522054611624908490611be7565b306000908152600f60209081526040808320939093556001600160a01b038c16825260119052205460ff1615611692576001600160a01b038916600090815260106020526040902054611678908890611ba7565b6001600160a01b038a166000908152601060205260409020555b6001600160a01b03881660009081526011602052604090205460ff16156116f1576001600160a01b0388166000908152601060205260409020546116d7908390611be7565b6001600160a01b0389166000908152601060205260409020555b3060009081526011602052604090205460ff16156117355730600090815260106020526040902054611724908290611be7565b306000908152601060205260409020555b61173f8382611805565b876001600160a01b0316896001600160a01b03167fddf252ad1be2c89b69c2b068fc378daa952ba7f163c4a11628f55a4df523b3ef8460405161178491815260200190565b60405180910390a3851561179b5761179b8661182b565b505050505050505050565b60008080808085816117b8828a611ba7565b905060006117c4610fcb565b905060006117d2828c611bd0565b905060006117e08386611bd0565b905060006117ee8284611ba7565b929d929c50909a5092985092965091945050505050565b81600c546118139190611ba7565b600c55600d54611824908290611ba7565b600d555050565b60006106a461183b60aa84611bd0565b6118459190611b6f565b905060006106a461185760aa85611bd0565b6118619190611b6f565b905060006106a461187360aa86611bd0565b61187d9190611b6f565b905060006106a461188f60aa87611bd0565b6118999190611b6f565b905060008183856118aa888a611ba7565b6118b49190611ba7565b6118be9190611ba7565b6118c89190611ba7565b90506118ea30600760019054906101000a90046001600160a01b031683610f6c565b6008546119029030906001600160a01b031684610f6c565b60095461191a9030906001600160a01b031687610f6c565b6119243085611040565b83600b60008282546119369190611be7565b9250508190555083600d600082825461194f9190611ba7565b9091555050604080518681526020810186905290810184905260608101839052608081018290527fe8b2415917832446530d80c38b951aee5dd804822c22a00f2817951f19a6b42f9060a00160405180910390a1505050505050565b602081526000825180602084015260005b818110156119d957602081860181015160408684010152016119bc565b506000604082850101526040601f19601f83011684010191505092915050565b80356001600160a01b0381168114611a1057600080fd5b919050565b60008060408385031215611a2857600080fd5b611a31836119f9565b946020939093013593505050565b600060208284031215611a5157600080fd5b5035919050565b600080600060608486031215611a6d57600080fd5b611a76846119f9565b9250611a84602085016119f9565b929592945050506040919091013590565b600060208284031215611aa757600080fd5b6106e8826119f9565b60008060408385031215611ac357600080fd5b611acc836119f9565b915060208301358015158114611ae157600080fd5b809150509250929050565b60008060408385031215611aff57600080fd5b611b08836119f9565b9150611b16602084016119f9565b90509250929050565b600181811c90821680611b3357607f821691505b602082108103611b5357634e487b7160e01b600052602260045260246000fd5b50919050565b634e487b7160e01b600052601160045260246000fd5b600082611b8c57634e487b7160e01b600052601260045260246000fd5b500490565b634e487b7160e01b600052603260045260246000fd5b818103818111156105ca576105ca611b59565b634e487b7160e01b600052603160045260246000fd5b80820281158282048414176105ca576105ca611b59565b808201808211156105ca576105ca611b5956fea264697066735822122056f7f385118c6b42617a8c23a1f43b4e98745fd206ba657cabf414c76c06f5d064736f6c634300081c0033",
  "linkReferences": {},
  "deployedLinkReferences": {}
}